{
  "_format": "hh-sol-artifact-1",
  "contractName": "MiniCrowdfund",
  "sourceName": "contracts/MiniCrowdfund.sol",
  "abi": [
    {
      "anonymous": false,
      "inputs": [
        {
          "indexed": true,
          "internalType": "uint256",
          "name": "campaignId",
          "type": "uint256"
        },
        {
          "indexed": false,
          "internalType": "address",
          "name": "creator",
          "type": "address"
        },
        {
          "indexed": false,
          "internalType": "string",
          "name": "title",
          "type": "string"
        },
        {
          "indexed": false,
          "internalType": "uint256",
          "name": "target",
          "type": "uint256"
        },
        {
          "indexed": false,
          "internalType": "uint256",
          "name": "deadline",
          "type": "uint256"
        }
      ],
      "name": "CampaignCreated",
      "type": "event"
    },
    {
      "anonymous": false,
      "inputs": [
        {
          "indexed": true,
          "internalType": "uint256",
          "name": "campaignId",
          "type": "uint256"
        },
        {
          "indexed": false,
          "internalType": "address",
          "name": "contributor",
          "type": "address"
        },
        {
          "indexed": false,
          "internalType": "uint256",
          "name": "amount",
          "type": "uint256"
        }
      ],
      "name": "DonationReceived",
      "type": "event"
    },
    {
      "anonymous": false,
      "inputs": [
        {
          "indexed": true,
          "internalType": "uint256",
          "name": "campaignId",
          "type": "uint256"
        },
        {
          "indexed": false,
          "internalType": "address",
          "name": "creator",
          "type": "address"
        },
        {
          "indexed": false,
          "internalType": "uint256",
          "name": "amount",
          "type": "uint256"
        }
      ],
      "name": "FundsWithdrawn",
      "type": "event"
    },
    {
      "anonymous": false,
      "inputs": [
        {
          "indexed": true,
          "internalType": "uint256",
          "name": "campaignId",
          "type": "uint256"
        },
        {
          "indexed": false,
          "internalType": "address",
          "name": "contributor",
          "type": "address"
        },
        {
          "indexed": false,
          "internalType": "uint256",
          "name": "amount",
          "type": "uint256"
        }
      ],
      "name": "RefundClaimed",
      "type": "event"
    },
    {
      "inputs": [],
      "name": "campaignCount",
      "outputs": [
        {
          "internalType": "uint256",
          "name": "",
          "type": "uint256"
        }
      ],
      "stateMutability": "view",
      "type": "function"
    },
    {
      "inputs": [
        {
          "internalType": "uint256",
          "name": "",
          "type": "uint256"
        }
      ],
      "name": "campaigns",
      "outputs": [
        {
          "internalType": "address payable",
          "name": "creator",
          "type": "address"
        },
        {
          "internalType": "string",
          "name": "title",
          "type": "string"
        },
        {
          "internalType": "uint256",
          "name": "target",
          "type": "uint256"
        },
        {
          "internalType": "uint256",
          "name": "deadline",
          "type": "uint256"
        },
        {
          "internalType": "uint256",
          "name": "amountRaised",
          "type": "uint256"
        },
        {
          "internalType": "bool",
          "name": "claimed",
          "type": "bool"
        }
      ],
      "stateMutability": "view",
      "type": "function"
    },
    {
      "inputs": [
        {
          "internalType": "uint256",
          "name": "_campaignId",
          "type": "uint256"
        }
      ],
      "name": "claimRefund",
      "outputs": [],
      "stateMutability": "nonpayable",
      "type": "function"
    },
    {
      "inputs": [
        {
          "internalType": "uint256",
          "name": "",
          "type": "uint256"
        },
        {
          "internalType": "address",
          "name": "",
          "type": "address"
        }
      ],
      "name": "contributions",
      "outputs": [
        {
          "internalType": "uint256",
          "name": "",
          "type": "uint256"
        }
      ],
      "stateMutability": "view",
      "type": "function"
    },
    {
      "inputs": [
        {
          "internalType": "string",
          "name": "_title",
          "type": "string"
        },
        {
          "internalType": "uint256",
          "name": "_target",
          "type": "uint256"
        },
        {
          "internalType": "uint256",
          "name": "_durationInSeconds",
          "type": "uint256"
        }
      ],
      "name": "createCampaign",
      "outputs": [
        {
          "internalType": "uint256",
          "name": "",
          "type": "uint256"
        }
      ],
      "stateMutability": "nonpayable",
      "type": "function"
    },
    {
      "inputs": [
        {
          "internalType": "uint256",
          "name": "_campaignId",
          "type": "uint256"
        }
      ],
      "name": "donate",
      "outputs": [],
      "stateMutability": "payable",
      "type": "function"
    },
    {
      "inputs": [
        {
          "internalType": "uint256",
          "name": "_campaignId",
          "type": "uint256"
        }
      ],
      "name": "withdrawFunds",
      "outputs": [],
      "stateMutability": "nonpayable",
      "type": "function"
    }
  ],
  "bytecode": "0x608060405234801561001057600080fd5b50611a6e806100206000396000f3fe6080604052600436106100705760003560e01c80633d891f591161004e5780633d891f591461011d5780635b7baf641461015a5780637274e30d14610183578063f14faf6f146101ae57610070565b8063141961bc14610075578063155dd5ee146100b75780633020580b146100e0575b600080fd5b34801561008157600080fd5b5061009c60048036038101906100979190610bf2565b6101ca565b6040516100ae96959493929190610d1a565b60405180910390f35b3480156100c357600080fd5b506100de60048036038101906100d99190610bf2565b6102bb565b005b3480156100ec57600080fd5b5061010760048036038101906101029190610eb7565b6105a2565b6040516101149190610f26565b60405180910390f35b34801561012957600080fd5b50610144600480360381019061013f9190610f7f565b61079b565b6040516101519190610f26565b60405180910390f35b34801561016657600080fd5b50610181600480360381019061017c9190610bf2565b6107c0565b005b34801561018f57600080fd5b50610198610a42565b6040516101a59190610f26565b60405180910390f35b6101c860048036038101906101c39190610bf2565b610a48565b005b60016020528060005260406000206000915090508060000160009054906101000a900473ffffffffffffffffffffffffffffffffffffffff169080600101805461021390610fee565b80601f016020809104026020016040519081016040528092919081815260200182805461023f90610fee565b801561028c5780601f106102615761010080835404028352916020019161028c565b820191906000526020600020905b81548152906001019060200180831161026f57829003601f168201915b5050505050908060020154908060030154908060040154908060050160009054906101000a900460ff16905086565b60006001600083815260200190815260200160002090508060000160009054906101000a900473ffffffffffffffffffffffffffffffffffffffff1673ffffffffffffffffffffffffffffffffffffffff163373ffffffffffffffffffffffffffffffffffffffff1614610364576040517f08c379a000000000000000000000000000000000000000000000000000000000815260040161035b90611091565b60405180910390fd5b80600301544210156103ab576040517f08c379a00000000000000000000000000000000000000000000000000000000081526004016103a2906110fd565b60405180910390fd5b8060020154816004015410156103f6576040517f08c379a00000000000000000000000000000000000000000000000000000000081526004016103ed9061118f565b60405180910390fd5b8060050160009054906101000a900460ff1615610448576040517f08c379a000000000000000000000000000000000000000000000000000000000815260040161043f906111fb565b60405180910390fd5b60018160050160006101000a81548160ff02191690831515021790555060008160040154905060008260000160009054906101000a900473ffffffffffffffffffffffffffffffffffffffff1673ffffffffffffffffffffffffffffffffffffffff16826040516104b89061124c565b60006040518083038185875af1925050503d80600081146104f5576040519150601f19603f3d011682016040523d82523d6000602084013e6104fa565b606091505b505090508061053e576040517f08c379a0000000000000000000000000000000000000000000000000000000008152600401610535906112ad565b60405180910390fd5b837ff440aec6b52895984d061d622e6edeba6210f7c3e059be920663140c084560d78460000160009054906101000a900473ffffffffffffffffffffffffffffffffffffffff168460405161059492919061132c565b60405180910390a250505050565b60008083116105e6576040517f08c379a00000000000000000000000000000000000000000000000000000000081526004016105dd906113a1565b60405180910390fd5b60008211610629576040517f08c379a00000000000000000000000000000000000000000000000000000000081526004016106209061140d565b60405180910390fd5b60008081548092919061063b9061145c565b91905055506040518060c001604052803373ffffffffffffffffffffffffffffffffffffffff168152602001858152602001848152602001834261067f91906114a4565b81526020016000815260200160001515815250600160008054815260200190815260200160002060008201518160000160006101000a81548173ffffffffffffffffffffffffffffffffffffffff021916908373ffffffffffffffffffffffffffffffffffffffff1602179055506020820151816001019081610702919061167a565b5060408201518160020155606082015181600301556080820151816004015560a08201518160050160006101000a81548160ff0219169083151502179055509050506000547fdc26653af5b99b2da33e2ad69ee6600d9aeccc82b034501db4338309615ca238338686864261077791906114a4565b604051610787949392919061175b565b60405180910390a260005490509392505050565b6002602052816000526040600020602052806000526040600020600091509150505481565b6000600160008381526020019081526020016000209050806003015442101561081e576040517f08c379a0000000000000000000000000000000000000000000000000000000008152600401610815906110fd565b60405180910390fd5b8060020154816004015410610868576040517f08c379a000000000000000000000000000000000000000000000000000000000815260040161085f90611819565b60405180910390fd5b60006002600084815260200190815260200160002060003373ffffffffffffffffffffffffffffffffffffffff1673ffffffffffffffffffffffffffffffffffffffff16815260200190815260200160002054905060008111610900576040517f08c379a00000000000000000000000000000000000000000000000000000000081526004016108f7906118ab565b60405180910390fd5b60006002600085815260200190815260200160002060003373ffffffffffffffffffffffffffffffffffffffff1673ffffffffffffffffffffffffffffffffffffffff1681526020019081526020016000208190555060003373ffffffffffffffffffffffffffffffffffffffff168260405161097c9061124c565b60006040518083038185875af1925050503d80600081146109b9576040519150601f19603f3d011682016040523d82523d6000602084013e6109be565b606091505b5050905080610a02576040517f08c379a00000000000000000000000000000000000000000000000000000000081526004016109f990611917565b60405180910390fd5b837ff3f402280ef0a7905e124aa621b65eaeb2725c343e8b36d398ed78c29daf285c3384604051610a34929190611937565b60405180910390a250505050565b60005481565b600060016000838152602001908152602001600020905080600301544210610aa5576040517f08c379a0000000000000000000000000000000000000000000000000000000008152600401610a9c906119ac565b60405180910390fd5b60003411610ae8576040517f08c379a0000000000000000000000000000000000000000000000000000000008152600401610adf90611a18565b60405180910390fd5b34816004016000828254610afc91906114a4565b92505081905550346002600084815260200190815260200160002060003373ffffffffffffffffffffffffffffffffffffffff1673ffffffffffffffffffffffffffffffffffffffff1681526020019081526020016000206000828254610b6391906114a4565b92505081905550817f0b5b4c52969ff7329ecf7ee536409fda87812b15a8622bc6e8cdeab3aee14a263334604051610b9c929190611937565b60405180910390a25050565b6000604051905090565b600080fd5b600080fd5b6000819050919050565b610bcf81610bbc565b8114610bda57600080fd5b50565b600081359050610bec81610bc6565b92915050565b600060208284031215610c0857610c07610bb2565b5b6000610c1684828501610bdd565b91505092915050565b600073ffffffffffffffffffffffffffffffffffffffff82169050919050565b6000610c4a82610c1f565b9050919050565b610c5a81610c3f565b82525050565b600081519050919050565b600082825260208201905092915050565b60005b83811015610c9a578082015181840152602081019050610c7f565b60008484015250505050565b6000601f19601f8301169050919050565b6000610cc282610c60565b610ccc8185610c6b565b9350610cdc818560208601610c7c565b610ce581610ca6565b840191505092915050565b610cf981610bbc565b82525050565b60008115159050919050565b610d1481610cff565b82525050565b600060c082019050610d2f6000830189610c51565b8181036020830152610d418188610cb7565b9050610d506040830187610cf0565b610d5d6060830186610cf0565b610d6a6080830185610cf0565b610d7760a0830184610d0b565b979650505050505050565b600080fd5b600080fd5b7f4e487b7100000000000000000000000000000000000000000000000000000000600052604160045260246000fd5b610dc482610ca6565b810181811067ffffffffffffffff82111715610de357610de2610d8c565b5b80604052505050565b6000610df6610ba8565b9050610e028282610dbb565b919050565b600067ffffffffffffffff821115610e2257610e21610d8c565b5b610e2b82610ca6565b9050602081019050919050565b82818337600083830152505050565b6000610e5a610e5584610e07565b610dec565b905082815260208101848484011115610e7657610e75610d87565b5b610e81848285610e38565b509392505050565b600082601f830112610e9e57610e9d610d82565b5b8135610eae848260208601610e47565b91505092915050565b600080600060608486031215610ed057610ecf610bb2565b5b600084013567ffffffffffffffff811115610eee57610eed610bb7565b5b610efa86828701610e89565b9350506020610f0b86828701610bdd565b9250506040610f1c86828701610bdd565b9150509250925092565b6000602082019050610f3b6000830184610cf0565b92915050565b6000610f4c82610c1f565b9050919050565b610f5c81610f41565b8114610f6757600080fd5b50565b600081359050610f7981610f53565b92915050565b60008060408385031215610f9657610f95610bb2565b5b6000610fa485828601610bdd565b9250506020610fb585828601610f6a565b9150509250929050565b7f4e487b7100000000000000000000000000000000000000000000000000000000600052602260045260246000fd5b6000600282049050600182168061100657607f821691505b60208210810361101957611018610fbf565b5b50919050565b7f4f6e6c79207468652063616d706169676e2063726561746f722063616e20776960008201527f7468647261770000000000000000000000000000000000000000000000000000602082015250565b600061107b602683610c6b565b91506110868261101f565b604082019050919050565b600060208201905081810360008301526110aa8161106e565b9050919050565b7f43616d706169676e206973207374696c6c206f6e676f696e6700000000000000600082015250565b60006110e7601983610c6b565b91506110f2826110b1565b602082019050919050565b60006020820190508181036000830152611116816110da565b9050919050565b7f43616d706169676e20646964206e6f742072656163682069747320746172676560008201527f7400000000000000000000000000000000000000000000000000000000000000602082015250565b6000611179602183610c6b565b91506111848261111d565b604082019050919050565b600060208201905081810360008301526111a88161116c565b9050919050565b7f46756e6473206861766520616c7265616479206265656e20636c61696d656400600082015250565b60006111e5601f83610c6b565b91506111f0826111af565b602082019050919050565b60006020820190508181036000830152611214816111d8565b9050919050565b600081905092915050565b50565b600061123660008361121b565b915061124182611226565b600082019050919050565b600061125782611229565b9150819050919050565b7f5472616e73666572206661696c65640000000000000000000000000000000000600082015250565b6000611297600f83610c6b565b91506112a282611261565b602082019050919050565b600060208201905081810360008301526112c68161128a565b9050919050565b6000819050919050565b60006112f26112ed6112e884610c1f565b6112cd565b610c1f565b9050919050565b6000611304826112d7565b9050919050565b6000611316826112f9565b9050919050565b6113268161130b565b82525050565b6000604082019050611341600083018561131d565b61134e6020830184610cf0565b9392505050565b7f546172676574206d7573742062652067726561746572207468616e2030000000600082015250565b600061138b601d83610c6b565b915061139682611355565b602082019050919050565b600060208201905081810360008301526113ba8161137e565b9050919050565b7f4475726174696f6e206d7573742062652076616c696400000000000000000000600082015250565b60006113f7601683610c6b565b9150611402826113c1565b602082019050919050565b60006020820190508181036000830152611426816113ea565b9050919050565b7f4e487b7100000000000000000000000000000000000000000000000000000000600052601160045260246000fd5b600061146782610bbc565b91507fffffffffffffffffffffffffffffffffffffffffffffffffffffffffffffffff82036114995761149861142d565b5b600182019050919050565b60006114af82610bbc565b91506114ba83610bbc565b92508282019050808211156114d2576114d161142d565b5b92915050565b60008190508160005260206000209050919050565b60006020601f8301049050919050565b600082821b905092915050565b60006008830261153a7fffffffffffffffffffffffffffffffffffffffffffffffffffffffffffffffff826114fd565b61154486836114fd565b95508019841693508086168417925050509392505050565b600061157761157261156d84610bbc565b6112cd565b610bbc565b9050919050565b6000819050919050565b6115918361155c565b6115a561159d8261157e565b84845461150a565b825550505050565b600090565b6115ba6115ad565b6115c5818484611588565b505050565b5b818110156115e9576115de6000826115b2565b6001810190506115cb565b5050565b601f82111561162e576115ff816114d8565b611608846114ed565b81016020851015611617578190505b61162b611623856114ed565b8301826115ca565b50505b505050565b600082821c905092915050565b600061165160001984600802611633565b1980831691505092915050565b600061166a8383611640565b9150826002028217905092915050565b61168382610c60565b67ffffffffffffffff81111561169c5761169b610d8c565b5b6116a68254610fee565b6116b18282856115ed565b600060209050601f8311600181146116e457600084156116d2578287015190505b6116dc858261165e565b865550611744565b601f1984166116f2866114d8565b60005b8281101561171a578489015182556001820191506020850194506020810190506116f5565b868310156117375784890151611733601f891682611640565b8355505b6001600288020188555050505b505050505050565b61175581610f41565b82525050565b6000608082019050611770600083018761174c565b81810360208301526117828186610cb7565b90506117916040830185610cf0565b61179e6060830184610cf0565b95945050505050565b7f43616d706169676e207375636365656465642c206e6f20726566756e6473206160008201527f7661696c61626c65000000000000000000000000000000000000000000000000602082015250565b6000611803602883610c6b565b915061180e826117a7565b604082019050919050565b60006020820190508181036000830152611832816117f6565b9050919050565b7f596f7520646964206e6f7420636f6e7472696275746520746f2074686973206360008201527f616d706169676e00000000000000000000000000000000000000000000000000602082015250565b6000611895602783610c6b565b91506118a082611839565b604082019050919050565b600060208201905081810360008301526118c481611888565b9050919050565b7f526566756e64207472616e73666572206661696c656400000000000000000000600082015250565b6000611901601683610c6b565b915061190c826118cb565b602082019050919050565b60006020820190508181036000830152611930816118f4565b9050919050565b600060408201905061194c600083018561174c565b6119596020830184610cf0565b9392505050565b7f546869732063616d706169676e2068617320656e646564000000000000000000600082015250565b6000611996601783610c6b565b91506119a182611960565b602082019050919050565b600060208201905081810360008301526119c581611989565b9050919050565b7f446f6e6174696f6e206d7573742062652067726561746572207468616e203000600082015250565b6000611a02601f83610c6b565b9150611a0d826119cc565b602082019050919050565b60006020820190508181036000830152611a31816119f5565b905091905056fea2646970667358221220b41bf91eed979b6c627c3a878d4370e9f0d9c2f0005599aa45702bfdff8f129464736f6c63430008140033",
  "linkReferences": {},
  "deployedLinkReferences": {}
}